{
  "contractName": "Note",
  "abi": [
    {
      "constant": false,
      "inputs": [
        {
          "name": "_number",
          "type": "uint256"
        }
      ],
      "name": "initialize",
      "outputs": [],
      "payable": false,
      "stateMutability": "nonpayable",
      "type": "function"
    },
    {
      "constant": true,
      "inputs": [],
      "name": "getNumber",
      "outputs": [
        {
          "name": "_number",
          "type": "uint256"
        }
      ],
      "payable": false,
      "stateMutability": "view",
      "type": "function"
    },
    {
      "constant": false,
      "inputs": [
        {
          "name": "_number",
          "type": "uint256"
        }
      ],
      "name": "setNumber",
      "outputs": [],
      "payable": false,
      "stateMutability": "nonpayable",
      "type": "function"
    }
  ],
  "bytecode": "0x608060405234801561001057600080fd5b5060d48061001f6000396000f3fe608060405260043610604c577c010000000000000000000000000000000000000000000000000000000060003504633fb5c1cb81146051578063f2c9ecd8146079578063fe4b84df146051575b600080fd5b348015605c57600080fd5b50607760048036036020811015607157600080fd5b5035609d565b005b348015608457600080fd5b50608b60a2565b60408051918252519081900360200190f35b600055565b6000549056fea165627a7a723058206222faba9abd2d2776d7829b0bf40160949924a9c84839ebcedf5dbc4b9c8a440029",
  "source": "pragma solidity ^0.5.0;\r\n\r\nimport \"zos-lib/contracts/Initializable.sol\";\r\n\r\ncontract Note {\r\n    uint256 private number;\r\n\r\n    function initialize(uint256 _number) public {\r\n        number = _number;\r\n    }\r\n\r\n    function getNumber() public view returns (uint256 _number) {\r\n        return number;\r\n    }\r\n\r\n    function setNumber(uint256 _number) public {\r\n        number = _number;\r\n    }\r\n}",
  "sourcePath": "C:/Users/lucas.vieira/Desktop/ethUpdates/contracts/Note.sol",
  "compiler": {
    "name": "solc",
    "version": "0.5.1+commit.c8a2cb62.Emscripten.clang"
  },
  "schemaVersion": "3.0.10",
  "updatedAt": "2019-06-27T18:22:49.019Z",
  "devdoc": {
    "methods": {}
  },
  "userdoc": {
    "methods": {}
  }
}